{
  "transactions": [
    {
      "hash": "0x91388ffb023964b428f70d1d9b6a78bf638b4609c29f92154c3420fca2802366",
      "transactionType": "CALL",
      "contractName": null,
      "contractAddress": "0x779877a7b0d9e8603169ddbd7836e478b4624789",
      "function": "transferAndCall(address,uint256,bytes)",
      "arguments": [
        "0x9DdfaCa8183c41ad55329BdeeD9F6A8d53168B1B",
        "3000000000000000000",
        "0xfc84eba6172f86712a847097ab9d004bb465cf06630f500568c46e1e7c7918b1"
      ],
      "transaction": {
        "from": "0x2f9ce769d081540c231f0de2d75d9508f0e3fa71",
        "to": "0x779877a7b0d9e8603169ddbd7836e478b4624789",
        "gas": "0x1a8ee",
        "value": "0x0",
        "input": "0x4000aea00000000000000000000000009ddfaca8183c41ad55329bdeed9f6a8d53168b1b00000000000000000000000000000000000000000000000029a2241af62c000000000000000000000000000000000000000000000000000000000000000000600000000000000000000000000000000000000000000000000000000000000020fc84eba6172f86712a847097ab9d004bb465cf06630f500568c46e1e7c7918b1",
        "nonce": "0x14",
        "chainId": "0xaa36a7"
      },
      "additionalContracts": [],
      "isFixedGasLimit": false
    }
  ],
  "receipts": [
    {
      "status": "0x1",
      "cumulativeGasUsed": "0xc08a6c",
      "logs": [
        {
          "address": "0x779877a7b0d9e8603169ddbd7836e478b4624789",
          "topics": [
            "0xddf252ad1be2c89b69c2b068fc378daa952ba7f163c4a11628f55a4df523b3ef",
            "0x0000000000000000000000002f9ce769d081540c231f0de2d75d9508f0e3fa71",
            "0x0000000000000000000000009ddfaca8183c41ad55329bdeed9f6a8d53168b1b"
          ],
          "data": "0x00000000000000000000000000000000000000000000000029a2241af62c0000",
          "blockHash": "0x519a375631b7b59186b1274281d2d3177e02238ce1fb5e66772604f0e36fa3d2",
          "blockNumber": "0x6c5bdd",
          "transactionHash": "0x91388ffb023964b428f70d1d9b6a78bf638b4609c29f92154c3420fca2802366",
          "transactionIndex": "0x40",
          "logIndex": "0x61",
          "removed": false
        },
        {
          "address": "0x779877a7b0d9e8603169ddbd7836e478b4624789",
          "topics": [
            "0xe19260aff97b920c7df27010903aeb9c8d2be5d310a2c67824cf3f15396e4c16",
            "0x0000000000000000000000002f9ce769d081540c231f0de2d75d9508f0e3fa71",
            "0x0000000000000000000000009ddfaca8183c41ad55329bdeed9f6a8d53168b1b"
          ],
          "data": "0x00000000000000000000000000000000000000000000000029a2241af62c000000000000000000000000000000000000000000000000000000000000000000400000000000000000000000000000000000000000000000000000000000000020fc84eba6172f86712a847097ab9d004bb465cf06630f500568c46e1e7c7918b1",
          "blockHash": "0x519a375631b7b59186b1274281d2d3177e02238ce1fb5e66772604f0e36fa3d2",
          "blockNumber": "0x6c5bdd",
          "transactionHash": "0x91388ffb023964b428f70d1d9b6a78bf638b4609c29f92154c3420fca2802366",
          "transactionIndex": "0x40",
          "logIndex": "0x62",
          "removed": false
        },
        {
          "address": "0x9ddfaca8183c41ad55329bdeed9f6a8d53168b1b",
          "topics": [
            "0x1ced9348ff549fceab2ac57cd3a9de38edaaab274b725ee82c23e8fc8c4eec7a",
            "0xfc84eba6172f86712a847097ab9d004bb465cf06630f500568c46e1e7c7918b1"
          ],
          "data": "0x000000000000000000000000000000000000000000000000000000000000000000000000000000000000000000000000000000000000000029a2241af62c0000",
          "blockHash": "0x519a375631b7b59186b1274281d2d3177e02238ce1fb5e66772604f0e36fa3d2",
          "blockNumber": "0x6c5bdd",
          "transactionHash": "0x91388ffb023964b428f70d1d9b6a78bf638b4609c29f92154c3420fca2802366",
          "transactionIndex": "0x40",
          "logIndex": "0x63",
          "removed": false
        }
      ],
      "logsBloom": "0x00000004000000000800000000000000000000000020000000000000020000000000000000000000000000000000000000000000000000000000000000000000000000000000000000000008000000000000002000000000000020000020000008000000000000000000000000000000000000000000000000000010000040000000000000000000000000010000800008000020000000000000000000000000000000000000000000000000010000000000000000000000000004008000000002000002000000000000000000000000000000000000000100000000000000000010000000000000800000000000000000000000000000000000400000000000",
      "type": "0x2",
      "transactionHash": "0x91388ffb023964b428f70d1d9b6a78bf638b4609c29f92154c3420fca2802366",
      "transactionIndex": "0x40",
      "blockHash": "0x519a375631b7b59186b1274281d2d3177e02238ce1fb5e66772604f0e36fa3d2",
      "blockNumber": "0x6c5bdd",
      "gasUsed": "0x133a5",
      "effectiveGasPrice": "0x27da509",
      "from": "0x2f9ce769d081540c231f0de2d75d9508f0e3fa71",
      "to": "0x779877a7b0d9e8603169ddbd7836e478b4624789",
      "contractAddress": null
    }
  ],
  "libraries": [],
  "pending": [],
  "returns": {},
  "timestamp": 1731921277,
  "chain": 11155111,
  "commit": "829a709"
}